:020000040800F2
:10000000501D00209D0100087B140008DF0E000831
:100010007914000873090008D14D000800000000A1
:10002000000000000000000000000000F1190008BE
:10003000E509000800000000251700086D1D0008F4
:10004000C1010008C1010008C1010008C101000888
:10005000C1010008C1010008A50C0008B90C000886
:10006000C1010008C1010008C1010008C101000868
:10007000C1010008C1010008C1010008C101000858
:10008000C1010008C1010008C1010008C101000848
:10009000C1010008C1010008C1010008C101000838
:1000A000C1010008C1010008C1010008C101000828
:1000B000DD1D0008E11D0008111E0008C101000837
:1000C000C1010008C1010008C1010008C101000808
:1000D000C1010008FD200008C1010008C10100089D
:1000E000C1010008C1010008C1010008C1010008E8
:1000F000C1010008C1010008C1010008C1010008D8
:10010000C1010008C1010008131E0008C101000858
:10011000C1010008C1010008C1010008C1010008B7
:10012000C1010008C1010008C1010008C1010008A7
:10013000C1010008C1010008C1010008C101000897
:10014000C1010008C1010008C1010008091500082B
:10015000C1010008C1010008C1010008C101000877
:10016000C1010008C1010008C1010008C101000867
:10017000C1010008C1010008C1010008C101000857
:10018000C1010008C1010008DFF80CD000F05CFBE1
:1001900000480047A1730008501D0020094801686D
:1001A00041F4700101600848804708480047FEE7B5
:1001B000FEE7FEE7FEE7FEE7FEE7FEE7FEE7FEE717
:1001C000FEE7000088ED00E08D1D000889010008B1
:1001D00040EA01039B0703D009E008C9121F08C0C9
:1001E000042AFAD203E011F8013B00F8013B521E49
:1001F000F9D270472DE9FE4F074681EA0300C00F90
:100200000E46019021F0004123F00044B81AA141AC
:1002100005D23846314617461E460B46024623F0A5
:100220000040104304D13846314603B0BDE8F08F9A
:10023000350DC5F30A00C3F30A510290401A00902D
:10024000402868DAC3F3130040F4801B01989246FB
:1002500020B10023D2EB030A63EB0B0B0098594645
:10026000C0F14002504600F0D7F980460C46504697
:100270005946009A00F0EFF9C0197141EF1785EA6D
:1002800011533B4340D0019A52B3009A012A11DC2A
:100290000022801A4FF0004361EB055103EA055339
:1002A0008018CDE9002341F580114246234600F035
:1002B00027FABAE72E050025401B61EB060140191D
:1002C00041F58012001852412818A6F5001343EB9F
:1002D000020140EAD470294318EB0808644113E096
:1002E00064084FEA38084FF0000244EAC0744FEA4D
:1002F0000553801A61EB0301801841F5801149080C
:100300004FEA3000801859414246234603B0BDE809
:10031000F04F00F0E8B90198012240000023D0EB33
:10032000020263EBE07301984FEAE074381A66EB5F
:100330000401EBE783F000435CE781F0004159E7FB
:100340002DE9FE4F81EA030421F0004504F000444A
:1003500023F000414FF0000A009450EA050302D058
:1003600052EA010304D10020014603B0BDE8F08F3A
:10037000C1F30A53C5F30A541C44A0FB02B3C5F3EE
:10038000130545F4801CC1F3130141F480180CFBE4
:10039000023300FB083EA4F2F334810A930A41EAD7
:1003A0008C5143EA88530194A1FB03474FEA9C25F3
:1003B00005FB03734FEA982601FB06373D0526052A
:1003C00045EA1435BBEB06016EEB0503850E920E74
:1003D00045EA8C1542EA8812A5FB0206261E67EB49
:1003E00000070C0D44EA0334A41947EB1350C1F382
:1003F00013064FF0000319464FEA033343EA16533E
:1004000043EA0403019CE5FB0201A4F10C040294FD
:10041000009C4FEA0632CDE900A400F071F9A4E790
:100420002DE9F04D81EA030404F0004B21F0004770
:1004300014464FF0000A23F0004150EA070220D092
:1004400054EA01021DD0C1F30A550246C1F313005C
:10045000C7F30A56C7F3130340F4801143F4801323
:10046000A6EB0508101BD64608F2FD3873EB010019
:1004700002D308F1010801E092185B41B8F1000FC6
:1004800003DA00200146BDE8F08D00204FF480150E
:10049000064607460EE0B2EB040C73EB010C04D3E6
:1004A000121B064363EB01032F436D084FEA300034
:1004B00092185B4150EA050CEDD152EA030012D0CC
:1004C00082EA040083EA0105284303D100224FF0A9
:1004D000004308E0101B8B4102D20122002302E0FE
:1004E0006FF0010253101AEB060047EB085110EBB6
:1004F0000A0041EB0B01BDE8F04D00F0F4B80EB579
:10050000C10F80EAE0700844CA07002140F233437B
:100510008DE80E000A460B4600F0F2F803B000BD6D
:1005200070B5C1F30A5201F000450024C1F3130174
:1005300040F2FF3341F480119A4201DA002070BD8D
:1005400040F233439A42A2F2334203DC524200F0BB
:1005500072F800E090402C43F1D0404270BDC1F3EE
:100560000A52C1F3130140F2FF3341F480119A4261
:1005700001DA0020704740F233439A42A2F233423C
:1005800002DC524200F057B89040704700F0004241
:1005900030F000400DD0C10D01F5607142EA01510B
:1005A0000022C0F31600520742EAD002400711436E
:1005B000704700200146704730B5002904DB4FF03A
:1005C0000044404264EB0101002B04DB4FF0004487
:1005D000524264EB03038B4208BF824230BD0000ED
:1005E00001F0004230B421F0004150EA010306D08E
:1005F0000B0DA3F56073C1F31301002B02DC30BCBB
:1006000000207047440F44EAC104C100A01830BC68
:1006100000EBC35000F031B8202A04DB203A00FA86
:1006200002F1002070479140C2F1200320FA03F349
:10063000194390407047202A04DB203A21FA02F047
:100640000021704721FA02F3D040C2F1200291400C
:10065000084319467047202A06DBCB17203A41FA97
:1006600002F043EAE071704741FA02F3D040C2F170
:10067000200291400843194670470029A8BF7047DF
:10068000401C490008BF20F00100704710B4B0FAC8
:1006900080FC00FA0CF050EA010404BF10BC704763
:1006A00049B1CCF1200421FA04F411FA0CF118BF7D
:1006B000012121430843A3EB0C01CB1D0106000AD5
:1006C000002BBEBF002010BC704700EBC35010448D
:1006D0000029A4BF10BC7047401C490008BF20F08F
:1006E000010010BC704710B5002B08DA401C41F126
:1006F000000192185B411A4301D120F0010010BDA6
:100700002DE9F04D92469B4611B1B1FA81F202E01B
:10071000B0FA80F220329046FFF77EFF06460F4681
:1007200040EA0A0041EA0B0152465B46084303D106
:1007300030463946BDE8F08D194652EA010015D021
:10074000C8F140025046FFF776FF04460D4650467A
:1007500059464246FFF760FF084301D0012000E000
:100760000020044345EAE07526432F430A984FEAE8
:10077000D625A0EB08000A304FEA46534FF000029E
:1007800045EA47554FEAD72402D500200146D1E774
:10079000010550196141DDE9084500196941BDE8CD
:1007A000F04DA0E72DE9F04D00231A461B1A8A41AF
:1007B00003DB00200146BDE8F08DC1F30A52C1F30E
:1007C000130141F480154FF0000BD10702D100183E
:1007D0006D41521E0026044640F2FF11304601EBE7
:1007E000620A37468046024600204FF48011FFF728
:1007F00022FF80197941331847EB0102B4EB030C57
:1008000075EB020C04D3E41A65EB020506460F46AD
:10081000241908F101006D4180463428E3DDB11947
:1008200047EB0700091BA84103D24FF0FF321346E4
:1008300001E0002213461BEB060047EB0A51BDE81E
:10084000F04DFFF750BF0000064C074D06E0E06892
:1008500040F0010394E8070098471034AC42F6D307
:10086000FFF796FC387D0008587D00080EB540F271
:10087000334102910021CDE900110A460B46FFF7F2
:100880003FFF03B000BD70B501EB020410F8015B3F
:1008900015F0070301D110F8013B2A1106D110F819
:1008A000012B03E010F8016B01F8016B5B1EF9D11D
:1008B0002B0705D40023521E0FD401F8013BFAE7A1
:1008C00010F8013B02F10202A1EB030303E013F86D
:1008D000015B01F8015B521EF9D5A142D6D300207D
:1008E00070BD000010B5074C2060084600F00CF801
:1008F00020680028FCD1BDE8104000214FF0804066
:1009000001F095BA2C0100203EB504464FF0804519
:100910000021284601F08BFA00220121284601F02F
:100920009BFA022C02D0012C02D004E00B2001E043
:1009300042F6DF6001900520ADF800000020ADF820
:100940000800ADF802006946284601F0D3FA0121FB
:10095000284601F069FA0121284601F05BFA0122DC
:100960001146284601F078FA0121284601F05FFA85
:100970003EBDFEE7F8B5044613A00D4600680090A2
:1009800016466946114806F0CFF830B1022000F053
:10099000D5FF0A2000F028F8F8E710480CA1012242
:1009A00041600F4806F01CF818B1022000F0BAFFB1
:1009B000F8BD21460A4805F057FF084B2A46314644
:1009C000074806F0D8F8F8BD303A2F00A40A0020F6
:1009D000303A636F64652E74787400000000002064
:1009E000800600207047000002498860886800285F
:1009F000FCD170470000002010B501F0F3FA44204C
:100A000001F0E0FA012001F0DDFA002001F0DAFA4D
:100A1000124CA11C207800EB800001EB40006178B3
:100A200030F8110001F0CEFA002001F0CBFA207866
:100A300004F18E0100EB800001EB4000617830F89A
:100A4000110001F0BFFA1F2001F0BCFA032001F0F1
:100A5000B9FABDE8104001F097BA0000100000207C
:100A600010B501F0BFFA442001F0ACFA012001F00A
:100A7000A9FA002001F0A6FA124CA11C207800EB84
:100A8000800001EB4000617830F8110001F09AFA23
:100A9000002001F097FA207804F18E0100EB80002D
:100AA00001EB4000617830F8110001F08BFA03206F
:100AB00001F088FA182001F085FABDE8104001F035
:100AC00063BA0000100000202DE9F0415FA386B05A
:100AD000D3E900219B68CDE900215FA20293D2E90E
:100AE0000012CDE903125E4D00265E4F062872D239
:100AF000DFE800F088033151728B01F073FA702047
:100B000001F060FA012001F05DFA01F03DFA0120E8
:100B1000FFF76AFFDFF8508101206C46C8F800003B
:100B200028706E70FFF79CFF204601F079F8687816
:100B3000401C6870786880B201F02AF86878401C20
:100B40006870F86880B201F023F86878401C68701B
:100B5000D8F800003BE001F045FA702001F032FACD
:100B6000022001F02FFA01F00FFA022028706E70B7
:100B700003ACFFF741FF204601F052F86878401CB3
:100B80006870204601F04CF86878401C6870204678
:100B900001F046F858E001F025FA702001F012FA51
:100BA000032001F00FFA01F0EFF9032028702F4C19
:100BB0002F4F6E70322026603860FFF751FF20689B
:100BC00080B200F0E5FF6878401C6870386880B239
:100BD00000F0DEFF38E015E001F004FA702001F0CB
:100BE000F1F9042001F0EEF901F0CEF904202870AB
:100BF00021489FED200A6E7080ED000A00F026FF6C
:100C0000FFF72EFF06B0BDE8F08101F0EBF9702090
:100C100001F0D8F9052001F0D5F901F0B5F905206A
:100C200028706E7097ED000A00F010FF6878401C85
:100C3000687097ED020A00F009FF6878401C687040
:100C400097ED040A00F002FF6E70DBE775736572C2
:100C50002E74787400000000C9E8D6C300000000BC
:100C600010000020801400203802002044020020E0
:100C7000400200200000000048020020074810B594
:100C800000210170417000F037FD0721044800F099
:100C9000C5FEBDE810400A20FFF7A6BE10000020E8
:100CA0008401002010B5012000F026F8BDE81040B6
:100CB000012000F01BB8000010B5022000F01CF865
:100CC00000280FD00848437801220021012B06D0CC
:100CD00001704270BDE81040022000F007B80270B9
:100CE0004170F7E710BD00000C00002001490860CA
:100CF00070470000143C0140064A0146002012687B
:100D0000044B0A4014331B680B4202D0002A00D067
:100D100001207047003C014030B51B4983790268CF
:100D200063B30B6893430B600A1D13680468A34305
:100D3000136002790A441368046823431360124A5B
:100D4000083213680468A3431360131D1C68056808
:100D5000AC431C6090F805C0BCF1100F05D0614495
:100D60000A68006802430A6030BD116804682143C4
:100D70001160196800680143196030BD00790844AA
:100D800001689143016030BD003C0140F0B5002294
:100D900001234FF0030C00BF0D6803FA02F4254055
:100DA000A5422DD1066854000CFA04F5AE43066046
:100DB0000E790768A6403E4306600E79012E01D0E9
:100DC000022E12D18668AE4386604D798668A540B2
:100DD00035438560456803FA02F6B54345604568CA
:100DE0008E799640B6B235434560C56856000CFA18
:100DF00006F7BD43C560CD79A540C4682543C560ED
:100E0000521C102AC8D3F0BD4B07DB0E9A40C9080C
:100E100010B500EB8100016A0F249C40A1430162E0
:100E2000016A1143016210BD0246002012690A42A4
:100E300000D00120704741837047018370474069AB
:100E4000806880B27047D0F8CC000068C0F34140A1
:100E50007047084490F89B02704700EB8100D0F87F
:100E60005002704710B5044600200246C4F8100234
:100E700004EB8003C3F81422C3F85022231883F82C
:100E80008C22401CC0B20F28F2D30820A4F8B20272
:100E9000204603F073F8204602F070FE204602F070
:100EA00087FD0121204603F0CBF8204602F0EEFD3D
:100EB000204602F089FE002010BDD0F810027047D5
:100EC00010B503F045F8002010BD0022431883F848
:100ED0009B2200EB4113C3F8C02202F086BFFEE75D
:100EE0002DE9F04F00212DED028B83B0F7EE000AC3
:100EF000009101919FEDF18B0291F249F74ADFF8E1
:100F0000E083D1F800B0F04992ED000A98F8013082
:100F1000D1F800C0ED4998F800202BF4007E0E684F
:100F2000EB491FFA8CF90D284C68CD68E949D1F8D6
:100F300000A0E949096878D2DFE800F07707773D3B
:100F40005377637C95A3F3F2F1000121684604F026
:100F500089FC05F0C7F9E34EE34DDA4FDB4C4FF067
:100F600084084FF0880930684068FF28FBD1286862
:100F70004068FF28F7D10221684604F073FC012085
:100F8000FFF732FD306829684068FF28FDD14A68C4
:100F9000FF2AFAD12068812806D0832801D08B2827
:100FA000E1D1C4F80090DEE7386820F400703860C2
:100FB000C4F80080D7E7072A37D2DFE802F036040A
:100FC000040404040400C148812E05D0832E01D0FE
:100FD0008B2E2AD188213FE0BA49C1F800E0842154
:100FE0003AE0072A21D2DFE802F0200404040404D6
:100FF0000400022A02D0022088F8000098F80000BD
:1010000011E0002A11D0012A0FD0022A0DD133B1EC
:10101000012B06D0022B08D104202FE005E005208B
:101020002CE003202AE0FFF74FFD03B0BDEC028B5C
:10103000BDE8F08F062AF8D2DFE802F003040404CA
:101040000404F2E7A148812E08D0832EEDD19D49FA
:101050004BF400720A6081210160E6E79949C1F80A
:1010600000E08221F8E7062ADFD2DFE802F003037E
:1010700004060606D9E7012000E0022088F80000F7
:10108000D1E7052AD1D2DFE802F0030403224D00A4
:10109000CBE7002BC9D0012B0BD0022B10D0032B98
:1010A000C3D18C480AF1010AC0F800A01FFA8AF0E7
:1010B00032E08748642C01DA641C69E040682AE069
:1010C0008348642D01DA6D1C68E0C06823E063B1D9
:1010D000012B10D0022B15D0032BA6D17A48BCF1DE
:1010E000640F17DA0CF1010C67E07B48B1F5617F02
:1010F00010DA643168E0784840F2DE3291426ADA10
:101100000A3105E0744840F2E732914263DA491C43
:10111000016060E0006880B200F03AFD85E7ABE076
:1011200080E018E05BB1012B97D16C4C10EE100AF7
:10113000FFF72CFA53EC182BFFF75CF85EE010EE8B
:10114000101A6A4A6548914264DA30EE200A66E075
:1011500000F07CFC69E7052A8CD2DFE802F003048A
:101160000321430061E7002B84D0012B0CD0022B1C
:1011700010D0032B8CD15748BAF1000FCADDAAF169
:10118000010AC0F800A0C5E75148002C96DD641E96
:10119000446093E74E48002D97DD6D1EC56094E7CF
:1011A00073B1012B12D0022B17D0032BB6D14648B6
:1011B000BCF1000FAEDDACF1010CC0F800C0A9E736
:1011C00045486429A6DD64390160A3E742480A293D
:1011D00001DD0A399CE748469EE73F480129FADDD0
:1011E000491E95E783B1012B98D13C4C10EE100AB3
:1011F000FFF7CCF953EC182BFFF79CF8FFF7F0F949
:1012000000EE100A2060A3E7B5EEC00A3348F1EE05
:1012100010FA02DC90ED000A9AE730EE600A80EDE9
:10122000000A95E72E484178491EC8B2062A91D295
:10123000DFE802F003041216191EF6E6022903D8AD
:1012400088F8010010B104E003202BE0FFF708FC50
:10125000EBE6FFF7D1FBE8E6012923D9022021E0E4
:1012600002291FD9F0E70BB1012B1BD9012019E08E
:1012700001291FD902201DE019484078401CC0B246
:10128000062ADAD2DFE802F00304080C1114CCE6D7
:10129000032BD5D300200DE0022B03D3002001E067
:1012A000032BFBD288F80100D3E7002BF6D1DDE752
:1012B000022BEFD288F80100C8E700007B14AE478C
:1012C000E17A843F1002002040020020BC1400207C
:1012D0008014002038020020440200204802002030
:1012E00010000020F0010020F401002000C079442B
:1012F0002DE9F05F00252C46012000F013FBDFF8FC
:10130000088140214046FFF78FFD404E082768B115
:1013100080214046FFF788FD50B34FF4807A514654
:10132000C1464046FFF780FDF0B369E078213046C2
:10133000FFF781FDB146464607FA04F081B2484600
:10134000FFF77BFD40213046FFF76EFD48B10120DD
:10135000FFF74AFB40213046FFF766FD08B1641CE9
:1013600020E0641CE4B2042CE6D37821484645E032
:1013700078213046FFF75FFDB146464607FA04F094
:1013800081B24846FFF759FD80213046FFF74CFDFA
:1013900058B10120FFF728FB80213046FFF744FDBC
:1013A00018B1641D2546E0E704E0641CE4B2042C97
:1013B000E4D3DAE778213046FFF73DFDB346B8467F
:1013C0004F46564608FA04F081B25846FFF735FDFD
:1013D00031463846FFF728FD50B10120FFF704FBE6
:1013E00031463846FFF720FD10B104F1090503E04E
:1013F000641CE4B2042CE5D378215846FFF71BFDAA
:101400002846BDE8F09F0000000C0240001002409A
:101410007CB50121082000F087F90121102000F09F
:1014200083F90121880300F0A3F901258DF8045008
:10143000002478208DF8064000908DF807400220A7
:101440000B4E8DF8050069463046FFF79FFC78216A
:101450003046FFF7F0FC4FF4E07000908DF8075035
:101460008DF8044069460348FFF790FC7CBD0000FE
:1014700000100240000C0240FEE7704770B50F21DB
:10148000C478027801234FF0E026E4B1124C2468BE
:1014900004F4E064C4F5E064C4F30724C4F1040573
:1014A000E1404478AC4085780D4025430B4C290140
:1014B0001155007800F01F018B40400906EB8000B9
:1014C000C0F8003170BD02F01F008340500906EBE8
:1014D0008000C0F8803170BD0CED00E000E400E059
:1014E0000249084302490860704700000000FA05FD
:1014F0000CED00E0024A11400143024801607047D0
:1015000080FFFF1F08ED00E0014801F02FBF000041
:10151000C00A00202DE9F04F8BB00121082000F017
:101520001BF90121032000F0FFF84FF0020A8DF8AB
:1015300018A003258DF819500026DFF89C818DF83E
:101540001A6001275446CDF814A08DF81B7005A928
:101550004046FFF71BFC022201214046FFF754FCE6
:101560008DF818408DF819505C4C4FF480788DF848
:101570001A60CDF814808DF81B7005A92046FFF77E
:1015800005FC022201212046FFF73EFC8DF8187071
:101590008DF819504FF46070514D05908DF81A6018
:1015A0008DF81B7005A92846FFF7F0FB4D4C4FF056
:1015B00080012068012828467ED0FFF73CFC606847
:1015C00041460128284678D0FFF735FC46484FF4BD
:1015D00000710078012828467AD0FFF72CFC00BF64
:1015E0004FF4C060FFF77CFF32208DF828008DF8A3
:1015F00029708DF82A708DF82B700AA8FFF73EFF2E
:101600003A4848F24031DFF8E8B002684068B1FB80
:10161000F2F4B1FBF0F50920ADF81C00641EADF842
:1016200024606D1EADF81E6008948DF8266007A931
:10163000584600F05FFC07A92E48089500F05AFCB8
:1016400004EBD4704FF060094010ADF800900290A8
:10165000ADF81080ADF80270ADF804605446ADF8F6
:101660000CA0ADF812606946584600F0FDFB002161
:10167000584600F037FC0121584600F0D8FB05EB36
:10168000D5704010ADF800900290ADF81080ADF824
:101690000270ADF80460ADF80C40ADF81260694618
:1016A000144800F0E1FB0021124800F01BFC01216E
:1016B000104800F0BCFB02E004E006E008E00BB0DC
:1016C000BDE8F08FFFF7B9FB79E7FFF7B6FB7DE7E1
:1016D000FFF7B3FB84E70000000002400004024073
:1016E000001002403C1500203C0200205415002050
:1016F000000C00400008004010B500F073FC4020D2
:1017000000F060FC002000F05DFC002000F05AFCBE
:10171000FF2000F057FCFF2000F054FCBDE8104013
:1017200000F032BC70470000044A0029116801D063
:10173000014300E0814311607047000030380240EF
:10174000044A0029116801D0014300E0814311607F
:101750007047000034380240044A0029116801D063
:10176000014300E0814311607047000040380240AF
:10177000044A0029116801D0014300E0814311604F
:10178000704700004438024030B5224B1968224AA5
:1017900011F00C0104D05510042903D0082903D0FE
:1017A00002601DE005601BE01A49091F0C68C4F3C4
:1017B000805C0C68BCF1000F04F03F0402D0B5FB64
:1017C000F4F201E0B2FBF4F20C680968C4F3881487
:1017D0006243C1F30141491C4900B2FBF1F10160D0
:1017E00019680E4A01F0F0010909545C0168E140F2
:1017F00041601C6804F4E054A40A145D21FA04F466
:1018000084601B6803F460435B0BD25CD140C16011
:1018100030BD0000083802400024F4008B01002095
:1018200038B5044618A00D46006800906946174870
:1018300005F07AF930B1022000F080F80A20FFF7B5
:10184000D3F8F8E71248012C0AD012A14160012216
:10185000134805F0C5F870B1022000F063F810E0FD
:1018600010A1416001220E4805F0BAF80028F3D11A
:10187000074B702201E0064B78222946084805F004
:101880007AF9012038BD0000303A2F00A40A002068
:1018900000000020303A757365722E747874000071
:1018A00080060020303A6D6563682E7478740000FD
:1018B0000249002008700249487070477E010020EC
:1018C000300100201CB504460E48012150F82400C8
:1018D000FFF72AFF0B480021083830F81400009069
:1018E00001208DF804008DF806108DF80700022005
:1018F0008DF805000448694650F82400FFF746FAC1
:101900001CBD0000047C0008E00100200349044ADB
:1019100031F8101052F8200041837047FC7B00081A
:10192000E00100200349044A31F8101052F8200069
:1019300001837047FC7B0008E0010020044951F856
:1019400020104A69034B33F8100042404A61704747
:10195000E0010020FC7B000870B5044622480D46DB
:1019600086B050F824000121FFF7DEFE0121880334
:10197000FFF7FEFE1C4800268DF81060001F8DF852
:10198000136030F814000390184803A950F824009D
:10199000FFF7FCF9012D24D11348C01F015D401E43
:1019A000005D00F027F81048801E30F81400009009
:1019B0008DF8046008208DF805008DF80650684603
:1019C000FFF7AAF90848801F005D8DF808000F2076
:1019D0008DF809008DF80A008DF80B5002A8FFF76A
:1019E0004DFD06B070BD0000F87B0008DC01002052
:1019F0007047000010B58A0721F003040649130F51
:101A000021440F220C689A4094430C600A68984065
:101A100002430A6010BD0000083801402DE9F04182
:101A200006460D460024084F0AE0315D384600F0B6
:101A30003FFC4021384600F09DFB0028F9D0641C93
:101A4000AC42F2DBBDE8F081001001402DE9F04727
:101A50009FED4D1AF2EE041AC0EE010AFCEEE00A08
:101A600010EE900A84B26420604300EE900AF8EE13
:101A7000600A70EE600A80EEA12AFCEEC20A10EE47
:101A8000901A00EE900A8DB2F8EE600A05EB85011F
:101A9000490030EE602A00EE901AF8EE600A72EE0D
:101AA000600AFCEEE00A10EE909A00EE900AF8EE62
:101AB000600A30EE602A00EE901AF8EE600A72EECC
:101AC000600A60EEA10AFCEEE00A10EE902A00EE39
:101AD000900A96B2F8EE600A06EB8600400070EEBF
:101AE000600A00EE101AB8EE400A70EEC00A00EE6E
:101AF000100AB8EE400A10EE810ABCEEC00A10EEE1
:101B0000108A00F06FFA6F2000F05CFA002000F0FD
:101B100059FA1E4F07F14801387800EB800001EBBD
:101B20004000797830F8110000F04CFA002000F005
:101B300049FA387807F1D40100EB800001EB40004E
:101B4000797830F8110000F03DFA3034A0B200F09E
:101B500039FA3035A8B200F035FA09F130091FFA28
:101B600089F000F02FFA2E2000F02CFA3036B0B2B7
:101B700000F028FA08F130081FFA88F000F022FA85
:101B8000BDE8F04700F000BA0000C8421000002095
:101B90002DE9F0416421B0FBF1F46FF018016143CD
:101BA00000EB81000A2190FBF1F5694201EB810114
:101BB00000EB410600F016FA6F2000F003FA002057
:101BC00000F000FA154F07F14801387800EB80006B
:101BD00001EB4000797830F8110000F0F3F90020B3
:101BE00000F0F0F9387807F1D40100EB800001EB48
:101BF0004000797830F8110000F0E4F93034A0B2F8
:101C000000F0E0F93035A8B200F0DCF93036B0B2BF
:101C100000F0D8F9BDE8F04100F0B6B9100000209E
:101C200070B5044600F0DEF96F2000F0CBF900201B
:101C300000F0C8F91B4D05F14801287800EB800041
:101C400001EB4000697830F8110000F0BBF900208A
:101C500000F0B8F9287805F1D40100EB800001EB21
:101C60004000697830F8110000F0ACF90E4D40F2F8
:101C700027760FE03146284600F083FA50B914F871
:101C8000011B284600F014FB4021284600F072FAA0
:101C90000028F9D020780028ECD1BDE8704000F091
:101CA00073B90000100000200010014029480021F5
:101CB000026842F4803202604FF4A063026801F1CE
:101CC000010112F4003F01D19942F7D101688A0362
:101CD00021492FD5204A3832136843F080531360CE
:101CE0001E4A136843F4804313600A680A600A6856
:101CF00042F400420A600A6842F4A0520A600B1FD4
:101D0000174A1A60026842F080720260026892010B
:101D1000FCD5144B40F205621A600A6822F00302F7
:101D20000A600A6842F002020A600A68C2F381028D
:101D3000022AFAD10A6822F400020A60064A0A4915
:101D40007C321160016841F0806101600168090125
:101D5000FCD570470038024008380240007000404F
:101D600008544007003C02408040003010B500F0AD
:101D700001F904480078012803D103484188491C2F
:101D8000418010BD300100200C0000200F4810B52C
:101D9000016841F0010101600C4A00210832116024
:101DA00002680B4B1A400260031D0A4A1A6002685F
:101DB00022F48022026005480C300160FFF776FFB4
:101DC00005494FF00060086010BD00000038024077
:101DD000FFFFF6FE1030002408ED00E001F0C6BD64
:101DE00010B50121094800F01FF8FFF793FB05F03B
:101DF000C1FB04F07BF8002004F0ECFF012004F0AC
:101E0000E9FFBDE81040022004F0E4BF00040040F8
:101E1000704770470029018802D041F0800101E03D
:101E200021F0800101807047C94301827047002979
:101E3000018802D041F0010101E021F0010101809F
:101E40007047038A002280890B4200EA010001D01A
:101E500000B1012210467047002A828901D00A434E
:101E600000E08A438281704730B5028C22F0100274
:101E70000284028C8388048B22F0200224F4E6453D
:101E80000C88240645EA14448D892D0542EA15453F
:101E90004A88120545EA1242104DA84202D0104D60
:101EA000A84215D122F08005CA8923F440631205A7
:101EB00045EA124222F040058A88120545EA12429C
:101EC0000D8AAD0443EA15454B8A9B0445EA13434A
:101ED0008380048389688163028430BD00000140EF
:101EE00000040140028B22F4006242EA01210183D6
:101EF0007047000030B50288174B184C98420DD03F
:101F0000A0420BD0B0F1804F08D0154DA84205D0AB
:101F1000144DA84202D0144DA84204D122F0700CF6
:101F20004A8842EA0C02114DA84207D0104DA8423F
:101F300004D022F4407C0A8942EA0C0202804A68FA
:101F4000C2620A880285984201D0A04201D1897AF2
:101F500001860121818230BD000001400004014062
:101F60000004004000080040000C00400010004049
:101F70000014004003488168002902D08168491E8E
:101F800081607047000000207CB50C490C4D002496
:101F9000D1E90001CDE900016E4600BF36F814100A
:101FA000284600F085F94021284600F0E3F8002893
:101FB000F9D0641CE4B2042CF0D37CBD247B00086F
:101FC0000010014010B5064C0146204600F070F9A3
:101FD0004021204600F0CEF80028F9D010BD0000C6
:101FE0000010014010B5064CAA21204600F060F90F
:101FF0004021204600F0BEF80028F9D010BD0000B6
:1020000000100140F0B589B001210220FFF78CFBE0
:1020100001211020FFF7ACFB354F0722062138467F
:10202000FEF7F2FE072211463846FEF7EDFE0225C6
:102030008DF80450002440208DF8064001260090C1
:102040008DF807608DF8055069463846FEF79EFE0C
:1020500080208DF8045000908DF806608DF80550B2
:1020600069463846FEF792FE4FF4E1300290ADF833
:1020700010400C201F4DADF80C40ADF81200ADF82B
:102080000E40ADF8144002A9284600F0B1F86815DA
:10209000ADF81C00ADF81840ADF81A40ADF81E4080
:1020A00006A9284600F04EF84FF4E060FFF718FA52
:1020B00025208DF820008DF821408DF822608DF8C4
:1020C000236008A8FFF7DAF9012240F225512846DB
:1020D00000F076F80121284600F042F84021284619
:1020E00000F048F804480470447009B0F0BD0000E6
:1020F00000040240001001401000002070B50020D4
:10210000FFF710FC0B4C40F225552946204600F005
:1021100038F801280CD12946204600F00DF8204659
:1021200000F0C2F801462046BDE8704000F0C0B89B
:1021300070BD0000001001400A0A01219140C9430E
:102140000180704710B5028A4C8822F470630A88B7
:1021500022438C88C9880C4322431A43028210BD53
:102160000029818902D041F4005101E021F400519D
:10217000818170470246002012880A4200D0012067
:10218000704770B501F01F0601220025C1F342130C
:1021900002FA06F4012B0FD0022B0FD0838A4FEAEC
:1021A00011210088234202FA01F200EA020001D064
:1021B00000B10125284670BD8389F0E7038AEEE768
:1021C000C1F3421301F01F0C012101FA0CF1012BA4
:1021D00007D0022B07D01430002A026805D00A432A
:1021E00004E00C30F8E71030F6E78A4302607047ED
:1021F0007FB50446008A0D4620F44051E888084324
:102200002082A08941F20C618843A9882A89114360
:102210006A8902431143A181A08A20F44071A889F0
:102220000843A0826846FFF7AFFA1D48844202D0F7
:102230001C48844201D1039800E00298A189090456
:10224000002900EBC00101EB0010296802DA4FEA17
:10225000410101E04FEA8101B0FBF1F06422B0FBE3
:10226000F2F14FEA01114FEA11136FF018056B43B9
:1022700000EB8300A3891D044FF0320306D503EB66
:10228000C000B0FBF2F000F0070005E003EB001027
:10229000B0FBF2F000F00F00084320817FBD00008A
:1022A00000100140001401408088C0F3080070470E
:1022B000C1F308018180704710B500224FF6FF730B
:1022C00000EB4204B4F88C44240409D49A4205D0AB
:1022D00000EB420041F40041A0F88C14D0B210BDD4
:1022E000521CD2B2082AEBD31A46F7E710B58C4637
:1022F000194600EB4114012384F8AE32C4E9AEC2A2
:1023000094F8C42202B1022284F8B422FEF7DDFD63
:10231000002010BD10B58C46194600EB4114002377
:1023200084F8AE32C4E9AEC294F8C52232B10222BA
:1023300084F8B422FEF7C9FD002010BD84F8B43241
:10234000F8E730B402240C7501244C750024CC82CB
:102350000A8315064C8300EB431202D582F8C4426F
:1023600001E082F8C542002330BC1A4600F01BB8D9
:10237000D0F8AC2401211172D0F8AC040021817294
:10238000704710B58C46194600EB411404F52B74C8
:102390000123A3704FF002032372C4E903C2FEF7C6
:1023A00094FD002010BD70B50C4615461E464979B7
:1023B000FEF74FFD01460120E3780246012B0AD0CB
:1023C000022B07D1012910D0032911D0042901D1F2
:1023D000E270032070BD2178617009212170A56031
:1023E000A68122770221E17070BDE270002070BDED
:1023F000E270022070BD000010B58C46194600EB5B
:102400004114002384F8AE32C4E9AEC21AB194F884
:10241000C5225AB102E0012284F8C522022284F8C2
:10242000B42200BFFEF751FD002010BD84F8B43285
:10243000F8E78C46114600EB411310B503F52B73FA
:1024400000229A704FF003021A724FF00802C3E99B
:1024500003C2FEF73AFDC0B210BD0221002200EB1C
:102460004103491CC9B2A3F88C240829F7D30020E2
:10247000704770B505460020087048700C4688709B
:102480000121E17021774022A27184F8200084F8B4
:1024900021102179284600F025F86179284600F0BE
:1024A00021F8002070BDD0F8AC2401215172D0F881
:1024B000AC040021C172704770B50C250446052993
:1024C0000AD0042908D006290BD12570D0F8800045
:1024D0000068BDE870400047D4F88000406C804739
:1024E000257070BD082908D200EB410101F28C4033
:1024F000B1F88C14C1F30E0101800020704730B494
:1025000042F08002DDE9024C0A7506224A75032278
:10251000CB82B2EB132F02D140F2094200E000223D
:102520000A83A1F81AC0224630BC6346FFF73BBFBE
:102530000A8803781A440A800178084470472DE914
:10254000FC41154600F58877CDE900750C464FF43F
:1025500000730022FFF7D3FF060009D13B4604F1C8
:10256000500204F13E0104F13400009500F07BFFBD
:102570003046BDE8FC817CB50446154600F5887000
:10258000CDE900050E464FF4807300222046FFF788
:10259000B6FF002830D104F58874082D217806F89C
:1025A000221F61787170A178E27801EB02217180BD
:1025B0002179317161797171A179B171E179A4F5F4
:1025C0008874F17118D904F58C742178627801EB64
:1025D00002213181A178E27801EB02217181217918
:1025E000627901EB0221B181A179B173E179F173D3
:1025F000217A3174617A71747CBD7CB51E46069D6A
:1026000000F5887442F440730022CDE90045FFF7DD
:1026100076FF010014D16078032811D12078821E42
:10262000AA4200DC1546A41CAAB2002004E0235CE8
:10263000801C06F8013B80B29042F8D30020307035
:1026400008467CBD2DE9F05F002680468E74087F29
:102650000B270925DFF8B8910C464FF0080B4FF017
:10266000050A0C2817D2DFE800F0CF060E394258D1
:102670006A7A839DAEC1627904F114014046FFF786
:10268000D8FE0220B9E061794046FEF7E2FB01285E
:1026900002D003281ED0B7E0207D618B00F08000BF
:1026A00051B141F28832A9F80020802802D084F884
:1026B0001CA008E0032005E03222A9F800208028B1
:1026C00006D0072020774046FEF7B9FB20829BE02A
:1026D0002577F8E7277784F812A095E0A089237979
:1026E000C2B24046A168FFF74CFE042085E0217984
:1026F0004046FEF7AEFB01280DD004286ED003281B
:1027000072D04046FEF79BFB218A411AB9F80000BF
:10271000814269D878E02577F3E7607908EB4010CB
:1027200090F8C51281F0010180F8C512A089637983
:10273000C2B24046A168FFF75FFE06205DE0617906
:102740004046FEF786FB012804D0042846D0022824
:1027500002D040E0072050E084F81CA054E00022A2
:10276000237911464046FFF70CFE84F81CB04BE07D
:1027700021794046FEF76DFB054601282ED0032D3A
:1027800032D04046FEF75BFB218A411AB9F80000BF
:10279000814229D8042D37D1607820700420A0749C
:1027A000032631E06079002208EB401090F8C51252
:1027B00081F0010180F8C512637911464046FFF7A8
:1027C0001BFE0A2019E061794046FEF742FB012812
:1027D00004D0022806D0032806D015E060782070C7
:1027E00012E001E025770FE027770DE0A07B401C89
:1027F000C0B2A073022802D80120207704E084F838
:1028000012B06078207002263046BDE8F09F0000CC
:102810009C0100202DE9F0410C4680460125897875
:102820000026FF2092B02F460A2953D2DFE801F09C
:10283000052332535C6E8199ACB60822214640468E
:10284000FFF799FE002845D194F82900A071404671
:10285000FEF736FBA770A0790023CDE9006061790F
:102860001A46404600F066FDA0790023CDE90060DD
:1028700021791A462BE0122221464046FFF77BFEC3
:10288000002827D1D4F88000C16904F122008847CC
:10289000022081E001222146404600F025FF002869
:1028A0007DD104F104042777E06F006A804703209C
:1028B00004F8020C00960196227F217800234046FE
:1028C00000F038FD00960196227F61780023404693
:1028D00000F030FD63E0092221464046FFF72FFE5D
:1028E00000285CD1042057E0E28E21464046FFF7E5
:1028F00026FE70BBD4F8800004F1500204F13E01C2
:10290000436A04F134009847052045E094F83020EC
:10291000062652B1009002AB21464046FFF76DFEFD
:10292000B8B9D4F88000816A11E0D4F88000816AD7
:1029300013E094F83120072662B1009002AB2146E3
:102940004046FFF75AFE20B9D4F88000C16A02A8B9
:1029500004E024E0D4F88000C16A13A08847A67080
:102960001DE094F83220082652B1009002AB2146B7
:102970004046FFF742FE90B9D4F88000016BE6E7CD
:10298000D4F88000016BE8E794F8392021464046EE
:1029900000F0B6FE18B90920A07000E0002512B0C2
:1029A0002846BDE8F08100004E2F41002DE9F0419E
:1029B00005462DED028B0F4614461E469DED088AF6
:1029C00000F078FF002000F029FF21462846FFF79D
:1029D00050FDE6670C4884ED208A40F2AC420021AD
:1029E000C5F8AC0401725059417239462846FEF7C9
:1029F00039FAD4F8800000688047BDEC028B284685
:102A0000BDE8F04100F036BFA001002010B58446BB
:102A10000A4C012012B1012A08D102E02378E278A1
:102A200001E06378A2786046FFF78BFC044AD16826
:102A3000491CD160042900D9042010BD5412002083
:102A4000B0010020014900200870704744120020A6
:102A500070B505460124FEF730FAD8B11048017868
:102A60002846FEF7FAF90D2813D10E480E4A0168E0
:102A700091420ED1A0F1200241685268914209D1E1
:102A8000007B20B1012805D0022802D002E00024FA
:102A900000E0022403481030C473204670BD0000DB
:102AA0005412002034120020555342530A490A227E
:102AB000012802D002280CD07047084B1878401C1F
:102AC000C0B218700A2804D2062008700120C8700D
:102AD00070470A707047000044120020C0010020B7
:102AE0002DE9F05F0D4680460124FEF7E6F9002847
:102AF0002AD0514E0027DFF844B13078DFF84091FA
:102B00004FF0080A0B281FD2DFE800F0060B23590C
:102B1000626E767E834D9200404600F093F901206C
:102B200013E021222A75FF226A75EF822F8300238A
:102B3000404629466F831A46FFF735FC04004FF0E4
:102B4000020002D0032C02D073E0307071E070708C
:102B500027E0A1222A75FE226A75EF822F830127C2
:102B6000364A404629466F833B460832FFF71BFC36
:102B700004004FF0030102D0032C11D059E09BF860
:102B800008208BF8482012B199F801200AB1317061
:102B90004FE089F80170D5F88000006C804748E06C
:102BA00071700920D1E76B79002229464046FFF772
:102BB000C8FB04003DD18BF848707078C5E74046EB
:102BC00000F024FB08B9042008E0FFF76FFF30E0B5
:102BD000404600F07BFA0028F7D1052086F8000077
:102BE00089F80070002424E0404600F0B5F9002880
:102BF000EBD186F800A0F3E7404600F0B7FA0028D2
:102C0000E3D170783070EDE72946404600F01AF8BD
:102C10000FE0D5F88000C06B804710F0FF0002D0B5
:102C2000012803D005E086F800A002E0062400E0B9
:102C300004242046BDE8F09F4412002054120020D6
:102C4000C00100202DE9F05F88468146FEF735F986
:102C500000281DD0784C0527784A2179784D002628
:102C60004FF0080B4FF0020A092911D2DFE801F0FA
:102C700010051235629EB3C9D6006F4953781F22E2
:102C800030394846FFF746FB0120607184F804A004
:102C9000BDE8F09F51784846FEF7DBF8012806D0E2
:102CA000022818D00428F3D101202870B3E062482C
:102CB000EE60303884F805A0017B806801F0800167
:102CC000002867D06860A068A860802901D004202F
:102CD0008BE0032089E0607987E0904611784846D0
:102CE000FEF7B7F8012802D0617903291CD0032030
:102CF000EE606071686840280DD998F80030402275
:102D00004846A968FFF7F2FA686840386860A86822
:102D10004030A860BCE790B382B298F800304846D3
:102D2000A968FFF7E3FA33E00428B1D12E70072039
:102D300020710EE0904651784846FEF78AF8012847
:102D400009D0022828D00428A2D10120287084F8B4
:102D500004B067719CE70420EE60607168684028E9
:102D60000ED998F8013040224846A968FFF7D2FAF8
:102D7000A8684030A86068684038686088E709E063
:102D800040B182B298F801304846A968FFF7C2FA0C
:102D90006E607DE727717BE7A96898F801304846A7
:102DA000BDE8F05F40224039FFF7B4BA224D6771A9
:102DB000103D3F20A5602946A0810D23EE545B1EE7
:102DC00013F0FF03FAD12E7013783F224846FFF725
:102DD0008DFA062009E011784846FEF73AF80128F6
:102DE00005D0042896D12E700720207150E7EE60A0
:102DF0006771A078207041464846FFF729FEE073CE
:102E000046E7002241464846FFF700FE70B92878A1
:102E100002287FF460AF84F804B039E7012241460C
:102E20004846FFF7F3FD00283FF455AF042891D141
:102E300084F80FA02CE70000441200205412002058
:102E4000B001002010B5FEF738F8002148B108485D
:102E5000064A0260074A42604173054A0120303247
:102E6000D0700548C1600548017010BD55534243FC
:102E70001412002050403020B0010020C00100207A
:102E800070B50C4D04460026697831B100F01BFF87
:102E900069782046FFF726FB6E702978002907D055
:102EA000204600F010FF29782046FFF71BFB2E700C
:102EB00070BD0000541200202DE9FC41054691F838
:102EC00043000C46082803D194F84500502806D04A
:102ED000D1F88000006C80470020BDE8FC8194F8A8
:102EE00052001C4E010604D5F070B4F85400B080B6
:102EF00003E0B070B4F85400F08094F85A00010672
:102F000004D5F070B4F85C00B08003E0B070B4F8A1
:102F10005C00F080B1782846FFF7CEF97070F17848
:102F20002846FFF7C9F93070F0880227CDE9007014
:102F300004F12004717863782278284600F06AFA58
:102F4000B088CDE90070637822783178284600F0A7
:102F500061FAC1E75412002070B50324FDF7ADFFFC
:102F600030B32148214D0023C1780122012902D02C
:102F7000022936D11DE01E493F2480268C600E7345
:102F80000A268E7385600525857010254E196D1EE5
:102F9000F37315F0FF05F9D11A23CB734C74CC747D
:102FA0000271072101700321C1730221C170032442
:102FB00017E0C17B21B101290ED002290FD010E00A
:102FC000A9780C060949A1F1100101D50A7300E0A6
:102FD0000B73C270002404E0C270012401E0C270CF
:102FE0000224204670BD000044120020141000206E
:102FF000141200202DE9FF4F314E81B04FF0030B2A
:10300000824689461C4686F800B0FDF756FFC8B3D5
:103010002C4D01274FF00008E878012802D0022843
:1030200049D130E028488022846002730A228273EA
:103030001021C5F808904218491E82F80F8011F03F
:10304000FF01F8D12821C1739DF80F1041749DF83C
:103050000E1081749DF80D10C1749DF80C1001754F
:10306000610AADF800109DF8011081759DF80010FF
:10307000C17507202F71287085F80FB002215846BE
:10308000E97017E017E0E87B38B95046FDF715FF07
:1030900018B1EF7086F800800DE0E87B012805D1BB
:1030A0005046FDF70AFF08B1EF7004E0E87B022804
:1030B00001D1EF703070307805B0BDE8F08F0000BE
:1030C000AD010020441200201412002070B503242A
:1030D000FDF7F3FE20B3224801232249C278012ADA
:1030E00002D0022A3AD11CE01F4A082494608024AE
:1030F00014730A24947381600421817010210024C8
:103100005518491EEC7311F0FF01F9D12521D17337
:103110000371072101700321C1730221C1700324CF
:103120001CE0C27B22B1012A13D0022A14D015E080
:103130000C4A0C78103AD4704C7894708C78547097
:10314000CC7814708C795472C9791172C3700024D0
:1031500004E0C370012401E0C3700224204670BD66
:1031600044120020141000201412002070B5032413
:10317000FDF7A3FE38B322480123224AC178012972
:1031800002D0022939D11FE01F493F2480258C60DD
:103190000D730A258D7382608278427006228270D8
:1031A000102200258E18521EF57312F0FF02F9D17D
:1031B0000322CA730D74CC74037107210170C273AA
:1031C0000221C170144618E0C17B21B101290FD042
:1031D000022910D011E00B4914781039CC715478C1
:1031E0008C7194784C71D2780A71C370002404E019
:1031F000C370012401E0C3700224204670BD0000AA
:1032000044120020141000201412002070B5032472
:10321000FDF753FE10B31A480123C178012902D0EB
:1032200002292BD11BE0174C00220621A260227339
:10323000A173154981603F2181810325857010218B
:103240006618491EF27311F0FF01F9D1E2730371A0
:10325000072101700221C573C17003240EE0C17BF8
:1032600021B1012905D0022906D007E0C37000244E
:1032700004E0C370012401E0C3700224204670BD45
:103280004412002014120020341200207FB582B0B6
:103290000E461D460324FDF710FEA0B3234801226D
:1032A000C178012902D002293CD12DE02049002318
:1032B0000A248D600B738C73102486600E19641EB3
:1032C000F37314F0FF04F9D12A23CB739DF8133064
:1032D0004B749DF812308B749DF81130CB749DF8AF
:1032E00010300B756B0AADF800309DF801308B750E
:1032F0009DF80030CB750271072101700321C17365
:103300000221C17003240DE0C17B21B1012905D048
:10331000022905D006E0C270002403E0C27001E07B
:10332000C270022406B0204670BD00004412002086
:103330001412002010B500EB4114DDF80CC00AB1E6
:1033400084F8AC22B4F8B222624504D0BCF1000F7C
:1033500001D0A4F8B2C294F8AF229A4202D00BB1C5
:1033600084F8AF3200F0CEFC002010BD38B5054621
:10337000002400200090284600F0C4FD002847D01B
:10338000284600F0C7FD0090009808B9002038BD1D
:103390000098C0F3C00018B1284601F0F7FC0443C0
:1033A0000098C0F3001018B1284601F050FC044307
:1033B0000098C0F3401018B1284601F093FA044376
:1033C0000098C0F3806018B1284601F0ABFB0443BD
:1033D0000098C0F3406018B1284600F080FE044316
:1033E0000098C0F3006018B1284601F00FFB0443B9
:1033F0000098C0F3407018B1284600F036FE044330
:103400000098C0F3405018B1284600F045FE044330
:103410002046BCE72DE9F04100EB410404F28C4565
:10342000B4F88C44DDE9066C04F07F0700EB41142E
:1034300004F52B7467702D88C5F3C015A570227034
:103440006671A4F806C0E3704FF00002227662763F
:10345000A4F52B7413B9012284F8B02200F052FCB9
:103460000020BDE8F0812DE9F84F04468A469146D8
:1034700019780A9A2170597861709978DD78184620
:1034800001EB05216180197921715D7965719D7963
:10349000A571DD79E571037A2372092A15D909220C
:1034A000ADF80020022910D800270BE06946FFF78D
:1034B0003FF8417804290AD00178BDF80020114472
:1034C000ADF800102179B942F0DCBDE8F88F07EBC8
:1034D000C70101EB0A05017829704178697081788C
:1034E000A970C178E970017929714179697181798F
:1034F000A971C179E971017A297229790026022915
:103500000CD90EE06946FFF713F8417805290BD076
:103510000278BDF80030D118ADF800102979B14219
:10352000F0DC7F1C7FB2CDE709EBC60302781A708E
:1035300042785A7082789A70C278DA7090F804C033
:1035400090F80580761C0CEB08229A8082799A719B
:1035500076B2E3E72DE9FC470546087800270C46DC
:103560004FF0010901F1200805F2AC460D280ED2FA
:10357000DFE800F00E0718969696566F7D846196E8
:1035800089002846FDF79CFC002800D1277087E0C1
:103590002846FDF792FC002841D02846FEF75DFF43
:1035A00002205EE0D4F8800080688047D5F8AC0443
:1035B00047723168284681F80A900021FEF77CFEA8
:1035C000607180212846FEF777FE20712846FDF7BE
:1035D00077FC002864D104F10404E06FC0688047E0
:1035E0002846FDF730FCC0B26077062104F8041CC1
:1035F000E16F89698847A078CDE90070637F227FF9
:1036000021782846FFF706FFA078CDE90070637F98
:10361000227F6178A4F104042846FFF7FBFE3FE017
:1036200021462846FFF7F6F800BBD4F88000406B2F
:1036300080470A2015E0D4F88000806B804701287D
:103640002ED1E06F214602682846904770B90720C6
:1036500007E0E06F2146826828469047010002D1CA
:10366000082020701CE02046FEF726FF18E0E06FDF
:103670002146C268284690470146F4E7214628467D
:10368000FEF7E0FF0CE021462846FEF7F2FED4F8F4
:10369000800040688047E06F414642682846904776
:1036A0002846FDF70AFC00281CD1D5F8AC04C07AE6
:1036B000002817D1D4F8800000698047D5F8AC14F1
:1036C000284681F80B902146FEF7D3FED4F88000FF
:1036D00040688047E06F4146426802B02846BDE836
:1036E000F0471047BDE8FC8730B400230B75052474
:1036F0004C75CA820B834B8330BC1A46FEF753BE0F
:1037000030B400230B7509244C75CA820B834B839C
:1037100030BC1A46FEF747BE704700000149002042
:10372000487070473001002070470000084910B50C
:10373000002008700749072008700220FEF7E6F80D
:103740000122BDE8104002210348FEF785BB0000BE
:103750007C0100202A0100200008004010B5022052
:10376000FEF7E0F8002202210A48FEF775FB0A4C3A
:103770002078012809D1FEF7C9F8012020700749F7
:1037800000200880064907200870BDE81040FEF7B9
:103790008FB8000000080040300100200E0000201B
:1037A0002A01002070477047704710B54FF4FA7037
:1037B00000F0F8F8BDE8104000F002B870470000D3
:1037C00070B50E4C0125607810B1012814D111E0BC
:1037D0000B49002003F0F4F810B14FF0FF3070BD3A
:1037E0000848007B012801D0657005E00220FEF743
:1037F00099F8FBE704480570002070BD30010020F7
:1038000050020020041000207E0100207047704705
:103810007047704770477047012070471CB5012101
:103820000420FDF781FF022101208DF80510009092
:103830008DF8040000208DF80600074C8DF8070075
:1038400069462046FDF7A2FA01212046FDF7F5FA68
:10385000C82000F0A7F81CBD000802400448002959
:103860004FF0010101D0FDF7E6BAFDF7E6BA00001E
:103870000008024038B54FF4C060FDF731FE432028
:103880008DF8000001248DF801408DF802408DF87C
:1038900003406846FDF7F2FD17208DF800008DF813
:1038A000014002208DF802008DF803406846FDF7C4
:1038B000E5FD38BDFEB501210846FDF735FF4FF4A3
:1038C000D050032600908DF8056002208DF804008A
:1038D0000025254F8DF806508DF80750694638466B
:1038E000FDF754FA0A2209213846FDF78DFA0A221B
:1038F0000B213846FDF788FA0A220C213846FDF7DD
:1039000083FA012438158DF8064000908DF80740A1
:103910008DF8056069463846FDF738FA0A221146E7
:103920003846FDF771FA01218803FDF721FF0121D7
:103930008020FDF705FF0021E006FDF7DBFD4FF4D9
:10394000A060FDF7CDFD1C208DF808008DF8095012
:103950008DF80A408DF80B4002A8FDF78FFD01217C
:103960000846FDF7F9FEFEBD0000024010B501213A
:103970008C072046FEF765FA002809D00121204671
:10398000FEF752FA0649086818B10868401E086038
:1039900010BD2046BDE810400021FEF748BA0000E7
:1039A0002C0100200121FCF79DBF0221FCF79ABFEA
:1039B00070B50446017A0026C06801290CD0C168A0
:1039C00041F04001C160204600F0ACF8217A4FF48C
:1039D000803003291DD01EE0816B627A21F4803192
:1039E0000AB141F480118163E068C16821F040119F
:1039F00021F0880121F4202141F01001C16020460E
:103A000000F090F8E07801283DD1E1682A20886034
:103A10002EE04FF44030617A40F4301009B140F4A8
:103A20008010E16888631420FFF7BCFFE168C86874
:103A3000227A032A01D140F48030C860207A03281A
:103A400016D1E068016B21F0406101F1806121F441
:103A50007F0141F0805505F534150563C820FFF757
:103A6000A1FFE16845F400000863C820FFF79AFF52
:103A7000E078012807D1E068816821F01E010A3151
:103A800041F020018160304670BD00002DE9F04119
:103A9000002704463D463E46FFF7C0FED4F80C0121
:103AA00006600121204600F021FA6069016821F0DA
:103AB00004010160E07A012813D1E06880214162AD
:103AC000304661F30F00E268602161F31F409062AD
:103AD000E022304662F30F0061F31F40E168C1F855
:103AE00000011021204600F0B7F8204600F096F8BB
:103AF0004FF0FF3108E000BF04EB850050F8902F35
:103B000091600068C6606D1C2078A842F4D801213D
:103B1000204600F03BF8204600F05EF83846BDE84D
:103B2000F0810000F8B50026054634460096124F95
:103B30000320FFF73AFFE86800690090641CBC426C
:103B400001D90020F8BD00980028F1DA0099002082
:103B500041F0010100910099EA681161E9680A6980
:103B60000092401CB84202D8009AD207F7D1032035
:103B7000FFF71BFF3046F8BD400D0300C068002171
:103B8000826822F0010282600846704770B50546DF
:103B90000C46FFF763FE284600F0C1F9C10408D4C3
:103BA000012C0CD1D5F8CC1040F480500860C10431
:103BB00005D524B9D5F8CC1020F480500860BDE8B4
:103BC0007040C820FFF7EEBEC0680021826842F056
:103BD000010282600846704710B5C268002319468A
:103BE0009361C4685A1E6261C4686260C46862619D
:103BF000C468094AA261C27802B91021C06841F0C4
:103C00000C5141F00801826941F400118A430A43D2
:103C10008261184610BD00000008008038B50024FD
:103C2000014620460094009A42F010020092009A49
:103C3000CB681A61074AC9680B690093401C90421F
:103C400002D8009BDB06F7D40320FFF7AEFE204628
:103C500038BD0000400D030038B500240246204660
:103C60000094009B43F020030093009B61F38A13B0
:103C700000930099D3681961074BD1680A690092D3
:103C8000401C984202D8009A9206F7D40320FFF70E
:103C90008CFE204638BD0000400D030010B500EB3F
:103CA0008100002350F8901F4FF00042012464F37C
:103CB000DC420A610068016821F0804141F0004166
:103CC0000160184610BD10B500EB81010022D1F84B
:103CD0009030196841F0404111F4402F09D0C1F3F0
:103CE0008144022C05D04069006910F47F0F03D095
:103CF00004E0C068C06AF8E721F00041196010468E
:103D000010BD0000F0B500EB81040025D4F89060F0
:103D10002F466B1E3A46B360C378012B00D10422B4
:103D200000EB411393F8B16236B1012E1DD0022E83
:103D300002D0032E23D10EE042F0890293F8AE6246
:103D400042F4826276B993F8B06242F04002B6B1B2
:103D500042F0200213E042F0990293F8AE6242F47E
:103D6000C06266B142F4807209E042F0010293F849
:103D7000AE6242F4087216B142F08002F2E7D4F863
:103D80009060F26001228A4041698E6916438E611B
:103D9000C068816941F00071816193F8AC0260F301
:103DA0009C5793F8AD0260F3CE2793F8AE0260F310
:103DB000CF3793F8AF0202280DD027F4003000BFB0
:103DC00093F8B112B3F8B22261F3934062F30A00A0
:103DD000032903D004E047F40030F1E740F000503D
:103DE000D4F8901008602846F0BDF0B500EB4114FF
:103DF0000027D4F8BC2206464FF480753B466AB1D2
:103E0000B4F8B2020244521EB2FBF0F292B2AA42DD
:103E100005D900022A46C4F8BC0200E0012294F849
:103E2000AE02A8B1B4F8B2025043C4F8BC0260F3C9
:103E3000120362F3DC4394F8B40206EB810260F3F0
:103E40005E73D2F890000361F078012803D007E098
:103E5000D4F8BC02EBE7D2F89030D4F8B80258613D
:103E600052F8900F0368304600F046F860F35D7337
:103E7000126823F0804040F000401060F07898BB5A
:103E800094F8AE0280BBD4F8BC0268B394F8B122B7
:103E900032B1012A11D0022A02D0032A1AD10CE031
:103EA000F268D36AC01CC0F38F009BB2834211D268
:103EB000906940F0200090610CE072691269C01CAA
:103EC000C0F38F0092B2824204D2F068826942F05D
:103ED00080628261D4F8BC020A4683B2D4F8B80288
:103EE0000146304600F060FF3846F0BD4269106878
:103EF00061F30100106070474069806840F3000082
:103F0000401C7047C068406900F00100012800D0E3
:103F100000207047C0684169806908407047D0F848
:103F2000CC00006820F02E0070474069406970475F
:103F3000034610B508460021D21C9208D3F8D030B1
:103F400003E01C6840F8044B491C9142F9D310BDB2
:103F500070B50546FFF7E3FF40F4807455F8CC0FC9
:103F600004600A20FFF71EFD296824F480700860B1
:103F70001420FFF717FD012070BD000070B500226E
:103F80000125C2704026857014461346868001299B
:103F900001D061B114E0C5720821017004214FF015
:103FA000A04241709115C1800221017208E0C372E4
:103FB0000C21017006214170204A4FF4A061C1809C
:103FC00002F50061C0E9032100210CE002EB41137E
:103FD00003F5106500EB810C03F53063CCF8185045
:103FE000491CCCF8543043788B42EFD802F58061FD
:103FF00041614031C0F8CC10002108E002EB4113D0
:1040000000EB810503F5A063491CC5F890300378E7
:104010008B42F3D8002108E002EB013300EB81056D
:1040200003F58053491CC5F8D03003788B42F3D890
:1040300002F56062C0F80C21204670BD000004400B
:1040400010B5C2680024D068012920F0C04001D01A
:1040500019B104E040F0005001E040F08040D06031
:104060003220FFF79FFC204610BD38B504460021E2
:10407000C4F8101200200090D4F8AC040168204667
:104080008847009820F0005000F100500090009800
:10409000E1684861012038BD0CB50146D1F89000B7
:1040A00000680090009820F0004000F1004000906F
:1040B000009820F0804000F180400090009AD1F8F4
:1040C0009000026000200190019820F4001000F59B
:1040D000001001900198CA68506101200CBD7CB5A8
:1040E0000546002400262846FFF71FFF019000BF69
:1040F0001BE0019880B20121A140084214D005F1D3
:10410000900050F82400006800900098C0F3C03080
:1041100028B12146284600F00DF8064304E0214668
:10412000284600F01BFA0643641C2878A042E0D819
:1041300030467CBD70B586B005460C4605F1900052
:1041400050F82460B0680590F0680490DDE9041030
:104150000840059005F1900050F824000068039095
:10416000002004900598C0F38000D0B10020019099
:10417000019820F00400001D01900198B06005F145
:10418000900050F82400C0680190019820F00200CF
:10419000801C019005F1900050F824000199C16045
:1041A00073E00598C0F3401048B1002001900198D9
:1041B00020F02000203001900198B06065E0059863
:1041C000C0F3C00078B305F1900050F82400C06837
:1041D0000190019820F00200801C019005F19000F0
:1041E00050F824000199C160052105F5237001559F
:1041F00000200190019820F01000103001900198EB
:10420000B06000200190019820F008000830019073
:104210000198B060059820F010000590E1B22846A2
:10422000FFF751FD31E0FFE70598C0F3802060B350
:1042300005F1900050F82400C0680190019820F02A
:104240000200801C019005F1900050F824000199B3
:10425000C160E1B22846FFF736FD002001900198C9
:1042600020F01000103001900198B060082105F591
:104270002370015500200190019820F4806000F522
:10428000806001900198B06000BF0598C0F34020A5
:10429000F8B105F1900050F82400C0680190019831
:1042A00020F00200801C019005F1900050F82400DD
:1042B0000199C160E1B22846FFF705FD0020019099
:1042C000019820F4007000F5007001900198B06032
:1042D00041E10598C0F30000002871D0E87801287A
:1042E00012D105F1900050F824000069029005F504
:1042F0002B7000EB441000690299C1F31201411ABE
:1043000005F5147040F82410012105F523700155BE
:104310000021783840F8241000200190019820F006
:104320000100401C01900198B0600398C0F38140E7
:1043300020B10398C0F3814002282AD105F19000F2
:1043400050F82400C0680190019820F00200801C01
:10435000019005F1900050F824000199C160E1B28C
:104360002846FFF7B0FC00200190019820F01000D3
:10437000103001900198B06005F52B7000EB4410EF
:10438000007E80F0010105F52B7000EB44100176F2
:10439000E1E00398C0F38140032899D1039820F00D
:1043A000005000F10050039005F1900050F82400F7
:1043B00003990160012105F29B200155CBE0FFE745
:1043C0000598C0F34000002851D005F1900050F846
:1043D0002400C0680190019820F00200019005F1CE
:1043E000900050F824000199C16005F52370005D2C
:1043F000012804D1012105F29B2001552DE005F58E
:104400002370005D052804D1042105F29B2001558D
:1044100023E005F52370005D062804D005F5237020
:10442000005D082808D1002105F5057040F824102A
:1044300003218730015510E00398C0F38140032821
:104440000BD105F52B7000EB4410007E80F00101CC
:1044500005F52B7000EB44100176002001900198C7
:1044600020F00200801C01900198B06073E0059874
:10447000C0F3C01040B305F1900050F82400C068AC
:104480000190019820F00200801C019005F190003D
:1044900050F824000199C16005F5057050F824100A
:1044A000491C40F82410062178300155E1B2284615
:1044B000FFF709FC00200190019820F08000803077
:1044C00001900198B06046E00598C0F30010E8B391
:1044D0000398C0F3814003281ED105F1900050F8E5
:1044E0002400C0680190019820F00200801C019017
:1044F00005F1900050F824000199C160E1B228460E
:10450000FFF7E1FB00200190019820F0100010302F
:1045100001900198B06018E00398C0F3814020B189
:104520000398C0F3814002280FD1039820F0004087
:1045300000F100400390039820F08040039005F1C3
:10454000900050F824000399016000E003E003218B
:1045500005F523700155012006B070BD7FB50546F5
:104560000C4605F1900050F82460B0680390F068A4
:104570000290DDE902100840039005F1900050F828
:104580002400006801900398C0F38000D0B100209F
:104590000090009820F00400001D00900098B0608A
:1045A00005F1900050F82400C0680090009820F0B9
:1045B0000200801C009005F1900050F82400009942
:1045C000C1608CE10398C0F3401048B10020009016
:1045D000009820F02000203000900098B0607EE12C
:1045E0000398C0F3000038B3002105F5057040F8CA
:1045F000241005F1900050F82400C0680090009845
:1046000020F00200801C009005F1900050F824007A
:104610000099C160E1B22846FFF755FB00200090E9
:10462000009820F00100401C00900098B06001212B
:1046300005F52370015552E10398C0F3C00010B393
:1046400000200090009820F00800083000900098AA
:10465000B06005F1900050F82400C0680090009808
:1046600020F00200801C009005F1900050F824001A
:104670000099C160E1B22846FFF725FB052105F549
:10468000237001552BE10398C0F3001038B30021CB
:1046900005F5057040F8241005F1900050F824004D
:1046A000C0680090009820F00200801C009005F186
:1046B000900050F824000099C160E1B22846FFF74D
:1046C00002FB00200090009820F0100010300090B5
:1046D0000098B060032105F523700155FFE00398B1
:1046E000C0F3C01040B305F1900050F82400C0683A
:1046F0000090009820F00200801C009005F19000CE
:1047000050F824000099C160E1B22846FFF7DBFAB7
:1047100005F5057050F82410491C40F824100621B6
:104720007830015500200090009820F08000803003
:1047300000900098B060D2E00398C0F3801038B3C6
:10474000002105F5057040F8241005F1900050F89F
:104750002400C0680090009820F00200801C0090A7
:1047600005F1900050F824000099C160E1B228469C
:10477000FFF7A9FA00200090009820F04000403098
:1047800000900098B060042105F523700155A6E063
:104790000398C0F3802060B305F1900050F8240026
:1047A000C0680090009820F00200801C009005F185
:1047B000900050F824000099C160E1B22846FFF74C
:1047C00082FA00200090009820F010001030009035
:1047D0000098B060082105F5237001550020009075
:1047E000009820F4806000F5806000900098B06030
:1047F00075E00398C0F34000002870D005F19000E8
:1048000050F82400C0680090009820F0020000904A
:1048100005F1900050F824000099C16005F523705F
:10482000005D012815D1012105F29B200155019859
:10483000C0F38140022848D105F52B7000EB4410ED
:10484000407E80F0010105F52B7000EB44104176AD
:104850003BE005F52370005D032804D1022105F239
:104860009B20015531E005F52370005D04280FD130
:1048700005F52B7000EB44100079012803D1E1B25B
:104880002846FFF70BFA022105F29B2001551CE098
:1048900005F52370005D052804D1042105F29B2055
:1048A000015512E005F52370005D06280DD105F5D0
:1048B000057050F82400032807D1032105F29B203E
:1048C00001550021873840F82410002000900098FE
:1048D00020F00200801C00900098B06000BF012012
:1048E00004B070BD7CB50446E068C06A00900098D2
:1048F000C0F3417104F52B7000EB41100069C01C3E
:10490000C0F38F0671E000988004050C0098C0F396
:10491000417104F52B7000EB41100069A84215D2DB
:104920000098C0F3417104F52B7000EB4110006951
:1049300085B200200190019820F0200020300190E5
:10494000E068806901998843E16888610098C0F354
:10495000417104F52B7000EB41100069C01CC0F3DD
:104960008F060098C0F34172C0F3417304F52B70B9
:1049700000EB43102B46C168204600F015FA009862
:10498000C0F3417104F52B7000EB4110C068411970
:104990000098C0F3417204F52B7000EB4210C16027
:1049A0000098C0F3417104F52B7000EB41100069D1
:1049B000411B0098C0F3417204F52B7000EB4210CC
:1049C00001610098C0F3417104F52B7000EB4110B8
:1049D000406941190098C0F3417204F52B7000EB57
:1049E00042104161E068C06A0090009880B2B04215
:1049F0000ADD0098C0F3417104F52B7000EB411003
:104A0000006900287FF47FAF01207CBDFEB504461D
:104A1000002600250020009002900190D4F8CC00E0
:104A200000680290D4F8CC0000680190019820F052
:104A300004000190019820F002000190019820F0FC
:104A400008000190019820F0200001900298C0F326
:104A5000400060B1D4F8AC04416820468847019812
:104A600020F00200801C0190012645F0010502980B
:104A7000C0F3C000002840D0019820F008000830A2
:104A800001900298C0F38000012836D10121C4F8BA
:104A900010120298C0F34140022804D00298C0F3DB
:104AA0004140012828D16069006800900298C0F355
:104AB0004140022811D141F2707160694160009853
:104AC000C0F30100022818D0E07A012803D10221A6
:104AD0002046FFF70BFA01260FE04BF680316069A4
:104AE00041600098C0F30100012806D00121204652
:104AF000FFF7FCF9012600E001260298C0F3401000
:104B000030B1019820F020002030019045F00105DF
:104B100016B12046FFF71CFA0199D4F8CC000160C9
:104B20002846FEBD7CB50446606900690090009887
:104B3000C0F3417104F52B7000EB41100069C01CFB
:104B4000C0F38F0672E000988004050C0098C0F353
:104B5000417104F52B7000EB41100069A84216D298
:104B60000098C0F3417104F52B7000EB411000690F
:104B700085B200200190019820F0806000F18060F3
:104B80000190E068806901998843E1688861009834
:104B9000C0F3417104F52B7000EB41100069C01C9B
:104BA000C0F38F060098C0F34172C0F3417304F55F
:104BB0002B7000EB43102B46C168204600F0F4F840
:104BC0000098C0F3417104F52B7000EB4110C068F0
:104BD00041190098C0F3417204F52B7000EB4210AC
:104BE000C1600098C0F3417104F52B7000EB4110D7
:104BF0000069411B0098C0F3417204F52B7000EB73
:104C0000421001610098C0F3417104F52B7000EB74
:104C10004110406941190098C0F3417204F52B70AE
:104C200000EB42104161606900690090009880B219
:104C3000B0420ADD0098C0F3417104F52B7000EB1F
:104C40004110006900287FF47EAF01207CBD7FB554
:104C50000446002500200290029820F01000103039
:104C60000290E068806902998843E1688861E068A1
:104C7000006A03900398C0F3030504F1900050F814
:104C80002500006800900398C0F34340022806D036
:104C9000032869D0052868D0072864D166E0039806
:104CA000C0F30A1000285DDD04F52B7000EB451001
:104CB000C068002856D00398C0F30A1204F52B7080
:104CC00000EB4510C1682046FFF732F90398C0F3A6
:104CD000030104F52B7000EB4110C0680399C1F388
:104CE0000A1101440398C0F3030204F52B7000EB92
:104CF0004210C1600398C0F3030104F52B7000EB70
:104D0000411040690399C1F30A1101440398C0F3AB
:104D1000030204F52B7000EB4210416104F52B7087
:104D200000EB4510466904F5147040F8256004F165
:104D3000900050F82500006901900198C0F3C94027
:104D400000280FDD009820F0004000F100400090A6
:104D5000009820F08040009004F1900050F8250069
:104D60000099016003E000BF00BF00BF00BF00BFAB
:104D7000029820F0100010300290E06880690299DB
:104D80000843E1688861012004B070BD08B50146A0
:104D900000200090009820F0080008300090009853
:104DA000CA685061012008BD30B5C47800256CB9CF
:104DB00000EB82000024DB1C9B08D0F8D00003E04D
:104DC00051F8042B0260641C9C42F9D3284630BD84
:104DD000FEE703B401984100009850EAC12018BFD3
:104DE00004204A0D18BF40F0010040F2FF72B2EB00
:104DF000515F08BF40F00200012808BF052002B043
:104E0000704700000000000010B533492DED020B83
:104E10002DED028B84B09FED2E8B079820F0004083
:104E2000B0EE481AF0EE681A8842D8BF9DED060B26
:104E300036DD2A4988420CD1069858B94FF0010056
:104E400000F00AFD53EC182B51EC180BFBF7E8FAB5
:104E500034E008DB9DED060B53EC102B51EC100BEE
:104E6000FBF7C8F92AE068469DED060B00F0E0F874
:104E700010F0030004BF9DED021B9DED000B0FD051
:104E8000012810D09DED021B9DED000B022818D0CB
:104E9000012000F029FC04B0BDEC028B02B010BD73
:104EA00000F0EEFAF7E79DED021B9DED000B0120EF
:104EB00000F01AFC51EC100B81F0004141EC100B9A
:104EC000E9E700F0DDFA51EC100B81F00041F5E765
:104ED0000000000000000000FB21E93F0000F07F1F
:104EE00010B533492DED020B2DED028B84B09FEDF3
:104EF0002E8B079820F00040B0EE481AF0EE681AAA
:104F00008842DCBF00209DED060B35DD2949884233
:104F10000CD1069858B94FF0010000F09DFC53ECFD
:104F2000182B51EC180BFBF77BFA3AE008DB9DEDF0
:104F3000060B53EC102B51EC100BFBF75BF930E038
:104F400068469DED060B00F073F810F003000ED0DC
:104F5000012818D09DED021B9DED000B022819D0F1
:104F600000F08EFA51EC100B81F0004119E09DED3C
:104F7000021B9DED000B012000F0B6FB04B0BDEC60
:104F8000028B02B010BD9DED021B9DED000B00F0E9
:104F900077FAF3E7012000F0A7FB51EC100B81F04A
:104FA000004141EC100BE9E70000000000000000A8
:104FB000FB21E93F0000F07F00B52DED048BB0EE42
:104FC000408AF0EE608A83B051EC180BFBF7EAFBE5
:104FD00041EC190B19EE101A19EE900A8DED009B99
:104FE000002918BF0121084320F00040C0F17F6074
:104FF00010F1E04014D518EE101A18EE900A8DED5D
:10500000008B002918BF0121084320F00040C0F1A7
:105010007F6000F1E0400028A4BF012000F01CFCEC
:10502000B0EE490A03B0F0EE690ABDEC048B00BD96
:105030002DE9F14F04462DED020B2DED088B96B0B6
:105040009FEDED0B80ED020B1F9FED4827F0004513
:10505000854209DC1E98C4E90007002016B0BDECAB
:10506000088B03B0BDE8F08FE6489FEDE7BB9FEDEE
:10507000E8ABA8424FDDE84E9FEDE98B9FEDEA9B40
:105080009DED1E0B53EC1B2B51EC100B002F20DD64
:10509000FBF750F941EC100BB5420AD053EC1A2B38
:1050A00051EC100BFBF746F941EC100B84ED000BB3
:1050B0000DE053EC182B51EC100BFBF73BF953ECC4
:1050C000192BFBF737F941EC100B84ED000B012095
:1050D000C4E7FBF78FF841EC100BB5420AD053EC54
:1050E0001A2B51EC100BFBF785F841EC100B84EDFB
:1050F000000B0DE053EC182B51EC100BFBF77AF87A
:1051000053EC192BFBF776F841EC100B84ED000BF8
:105110004FF0FF30A2E7C64885427BDC9DED1E0BB9
:1051200051EC100B01F0E4FD41EC180B9FEDC20BAC
:1051300053EC102BFBF704F99FEDC11B53EC112B23
:10514000FBF758F8FBF7ECF98246FBF7D8F941EC8E
:10515000190B53EC1B2BFBF7F3F853EC182BFBF755
:10516000ECF841EC180B53EC1A2B51EC190BFBF734
:10517000E7F8DFF8D4B241EC100B2E0D0125FB440B
:1051800053EC102B51EC180BFBF7D4F841EC100B3F
:10519000032D84ED000B3ED010EE900A05EB451177
:1051A0001139C0F30A50301A884234DD0BEB051870
:1051B000B0EE48AA98ED000BF0EE68AA53EC102B65
:1051C00051EC190BFBF7BCF841EC1B0B51EC1A0B23
:1051D00053EC1B2BFBF7AEF841EC180B51EC1A0B00
:1051E00053EC182BFBF7A6F853EC1B2BFBF7A2F89C
:1051F00098ED020B41EC1A0B53EC102B51EC190BF0
:10520000FBF79EF853EC1A2BFBF794F841EC100BCC
:105210006D1CB5E70FE0002FA8BF5046BFF61EAFCC
:1052200051EC100B81F0004141EC100BCAF1000071
:1052300084ED000B12E7C7F3130040F4801B1E98A7
:105240001190C7F30A50A0F2F530411100F01F0889
:10525000C8F12000139000200C900D907B487844FA
:1052600000EB810000F114020DA806271168D2F8A6
:1052700004C001FA08F3139906682CFA01F11943E6
:10528000A1FB0B35DDF844C0A1FB0CC166440B4407
:10529000664534BF4FF0010A4FF0000A50F804CCC5
:1052A00003EB0A0EF4448B4234BF01210021294450
:1052B000BAF1000F02D09C4502D903E09C4501D20F
:1052C000012300E000231944066040E9021C121F7C
:1052D000001F7F1ECAD1089800F10050850F089862
:1052E000DDE909678000DDF82C80FBF708F941EC67
:1052F0001B0B3046FBF7BAFA9FED551B53EC112BF5
:10530000FBF71EF841EC180B3846FBF7AFFA9FEDA0
:10531000521B53EC112BFBF713F841EC1A0B4046D0
:10532000FBF7A4FA9FED4E1B53EC112BFBF708F88B
:1053300041EC190B51EC1A0B53EC192BFAF75AFFED
:1053400053EC182BFAF756FF53EC1B2BFAF752FFCE
:1053500041EC100B00208DED020B02909DED020B35
:1053600053EC1B2B51EC100BFAF7E4FF53EC182B0A
:10537000FAF7E0FF53EC1A2BFAF7DCFF53EC192B8A
:10538000FAF7DBFF9FED381B53EC112BFAF7D8FF30
:105390009FED370B41EC180B53EC102B9DED020BDE
:1053A00051EC100BFAF7CCFF53EC182BFAF722FF55
:1053B0009FED310B41EC180B53EC102B9DED020BC4
:1053C00051EC100BFAF7BCFF53EC182BFAF712FF55
:1053D00041EC100B1F9810F0004F06D06D4251ECBD
:1053E000100B81F0004141EC100B284684ED000BBE
:1053F00034E6000000000000000000000000000093
:10540000FB21E93F7CD9024000004054FB21F93FD9
:105410003163621A61B4D03DFB21F93F0000000006
:105420000000601A61B4D03D7370032E8A19A33B4B
:10543000FB2139410000000083C8C96D305FE43FA3
:10544000000000000000E03FC62A0000162A00000D
:10545000000000000000103E000000000000103CB2
:10546000000000000000103A182D4454FB21F93DC3
:105470003326A611460B113C00000054FB21F93DD8
:1054800010B52DED040B2DED088B82B0B0EE419AD6
:10549000F0EE619A0B9820F000449FED4BBBB4F105
:1054A000795F11DA9DED0A0B51EC100BFBF738F820
:1054B000002801BFB0EE4B0AF0EE6B0A02B0BDEC63
:1054C000088B04BF04B010BD9DED0A0B53EC102BEC
:1054D00051EC100BFAF734FF41EC180B3C48062155
:1054E000B0EE480AF0EE680A784400F081F853EC18
:1054F000182B51EC100BFAF723FF9DED0A0B41EC32
:105500001A0B53EC192B51EC100BFAF719FF41EC65
:10551000190B53EC1A2B51EC180BFAF711FF53EC43
:10552000192BFAF707FF9FED2C0B41EC190B53ECED
:10553000102B51EC180BFAF703FF41EC100B284825
:10554000844210DA53EC192B51EC100BFAF7F2FEEF
:1055500053EC1B2BFAF7F1FE41EC100B02B0BDEC43
:10556000088B04B010BD1F48A042BCBF9FED1E1B9E
:105570008DED001B06DBA4F50010019000200090CB
:105580009DED001B51EC100B53EC112BFAF7D2FEE2
:105590009DED000B41EC1A0B53EC102B51EC1B0B47
:1055A000FAF7C8FE41EC180B53EC192B51EC1A0B0F
:1055B000FAF7C0FE53EC182BFAF7BFFE41EC100BC4
:1055C000CCE7000000000000000000000000F03FF9
:1055D0002C27000000000000000000000000E03F59
:1055E0003333D33F0000E93F000000000000D23F0A
:1055F00070B505462DED028B4C1E00EBC400B0EEDD
:10560000408AF0EE608A90ED000B34F0060017D06F
:1056100053EC182B51EC100BFAF792FE41EC100BE7
:10562000641E05EBC40090ED001B51EC100B53EC15
:10563000112BFAF7DFFD41EC100B34F00600E7D137
:10564000022C36D0042C1CD0062C1CBFBDEC028BC7
:1056500070BD53EC182B51EC100BFAF771FE95ED61
:105660000A1B53EC112BFAF7C5FD53EC182BFAF774
:1056700067FE95ED081B53EC112BFAF7BBFD41ECCF
:10568000100B53EC182B51EC100BFAF759FE95ED5B
:10569000061B53EC112BFAF7ADFD53EC182BFAF760
:1056A0004FFE95ED041B53EC112BFAF7A3FD41ECD3
:1056B000100B53EC182B51EC100BFAF741FE95ED43
:1056C000021B53EC112BFAF795FD53EC182BFAF74C
:1056D00037FE95ED001B53EC112BFAF78BFDBDEC5B
:1056E000028B41EC100B70BD31B504462DED040B5F
:1056F0002DED0A8BB0EE41BAF0EE61BA0B989DED3C
:105700000A0B20F00040B0F1795F0DDA51EC100B7C
:10571000FFF75FFB042808BF00F07EF89DED0A0B41
:10572000BDEC0A8B05B030BD53EC102B51EC100BC7
:10573000FAF706FE41EC180B9DED0A0B53EC182B03
:1057400051EC100BFAF7FCFD41EC190B2C48B0EEB4
:10575000480AF0EE680A05217844FFF749FF9FEDFB
:105760002ACBB0EE40AAF0EE60AA9CB353EC1C2BFF
:1057700051EC190BFAF7E4FD41EC1C0B53EC1A2B1E
:1057800051EC190BFAF7DCFD9FED210B41EC190BE5
:1057900053EC102B51EC1B0BFAF7D2FD53EC192BE9
:1057A000FAF7C8FD53EC182BFAF7CAFD53EC1B2B84
:1057B000FAF7C0FD53EC1C2BFAF7BCFD9DED0A1B5C
:1057C00053EC112BFAF7B9FDBDEC0A8B05B041EC97
:1057D000100B30BDFFE753EC1A2B51EC180BFAF706
:1057E000AFFD53EC1C2BFAF705FD53EC192BFAF720
:1057F000A7FD9DED0A1B53EC112BFAF7FBFCE3E729
:10580000B425000000000000495555555555C5BF49
:10581000000000000000E03F9FED050B10B553ECC9
:10582000102B51EC100BFAF78BFD41EC100B10BD57
:10583000000000000000001002E008C8121F08C1AC
:10584000002AFAD170477047002001E001C1121F01
:10585000002AFBD170470000014908607047000032
:105860004C02002070B52A4C00239FED2B0AE26801
:10587000CD075360274B1B68936182ED020A82EDCE
:10588000030A264B82ED040A07D0D0ED000A93EDFF
:10589000091A70EEC10AC2ED020A8D0707D5D0EDD4
:1058A000010A93ED0A1A70EEC10AC2ED030A490714
:1058B00007D5D0ED020A93ED0B1A70EEC10AC2EDC6
:1058C000040A82ED050A002002EB8001D2ED050AF0
:1058D00091ED020A401C032840EE000AC2ED050AC1
:1058E000F2DB10EE900AFAF751FE41EC100BFFF7D5
:1058F00063FB51EC100BFAF773FEE168486108484E
:10590000016821F0200141F01001016070BD00002C
:10591000F00100208014002000000000BC140020D2
:105920001002002070B504462DED0A8B343001F0D2
:10593000E5FC9FED7ACA606B50282AD094ED060AE8
:10594000D4ED140A20EE200A10EE100AFAF71EFE1B
:1059500041EC180B6069FAF719FE53EC182BFAF7B3
:105960002BFE1FD894ED020AD4ED070A502030EE2A
:10597000600A84ED0A0A94ED030AD4ED080A30EEB9
:10598000600A84ED0B0A84ED0CCAA063BDEC0A8B9F
:1059900070BD84ED0ACA84ED0BCA84ED0CCAFF20E9
:1059A0006060F3E76069FAF7F1FD53EC182BFAF742
:1059B000C1FCFAF715FE606153EC182B51EC180B83
:1059C000FAF7BEFC41EC1A0B9FED550B53EC102B74
:1059D000FAF7B6FC9FED541B53EC112BFAF7ADFC14
:1059E00041EC100BFFF7E8FA53EC182B51EC100BBD
:1059F000FAF7A6FC41EC190B9FED4D0B51EC1A0B7D
:105A000053EC102BFAF79CFC41EC180B6068032850
:105A100002D0022834D06FE0256A2846FAF7B6FD96
:105A200053EC192BFAF78CFCE66941EC1A0B304663
:105A3000FAF7ACFD41EC1B0B51EC180B81F0004167
:105A400053EC1B2BFAF77CFC53EC1A2BFAF772FC85
:105A5000FAF7C6FDA0622846FAF798FD53EC182B1A
:105A6000FAF76EFC41EC180B3046FAF78FFD53EC59
:105A7000192BFAF765FC41EC100B53EC182B32E0B4
:105A8000E6693046FAF782FD53EC182BFAF758FC1A
:105A9000256A41EC1A0B2846FAF778FD53EC192BCE
:105AA000FAF74EFC53EC1A2BFAF744FCFAF798FD80
:105AB000A0622846FAF76AFD53EC182BFAF740FC6F
:105AC00041EC1A0B3046FAF761FD41EC180B51EC32
:105AD000190B81F0004153EC182BFAF731FC53EC11
